:100000000C94430D0C94600D0C94600D0C94600DD9
:100010000C94600D0C94600D0C94600D0C94600DAC
:100020000C94600D0C94600D0C940A160C94611BDA
:100030000C942B260C94600D0C94600D0C94600DA8
:100040000C94600D0C94600D0C94600D0C94600D7C
:100050000C94600D0C94E3160C94600D0C94600DE0
:100060000C94600D0C94600D0C94600D0C94600D5C
:100070000C94600D0C94600D0C94600D0C94600D4C
:100080000C94600D0C94600D0C94600D0C94600D3C
:100090000C94600D0C94600D0C94600D0C94600D2C
:1000A0000C94600D0C94600D0C94600D050109809A
:1000B000A101850319012AB700150126B700950192
:1000C00075108100C0050C0901A101850419012AE0
:1000D000A002150126A002950175108100C00660DE
:1000E000FF0961A1010962150026FF00952075082E
:1000F00081020963150026FF00952075089102C052
:1001000005010906A101050719E029E715002501E8
:10011000950875018102950175088101050719008F
:1001200029FF150026FF00950675088100050819AE
:10013000012905950575019102950175039101C08D
:1001400000000000000000000000000000000000AF
:10015000000000000000000000000000000000009F
:10016000000000007E0F00D4FFFFFFC700000078F2
:1001700000000000000000002A2B28000000000002
:100180000000000000000000000000290000000046
:100190002C1E3420212224342627252E362D3738B4
:1001A000271E1F202122232425263333362E3738BD
:1001B0001F0405060708090A0B0C0D0E0F1011127B
:1001C000131415161718191A1B1C1D2F3130232D47
:1001D000350405060708090A0B0C0D0E0F10111245
:1001E000131415161718191A1B1C1D2F3130354CF6
:1001F00000DA02817FD9F1DB20A4A62EAF00A0C0D7
:1002000000A1C800AED580A81FD300408D142000E7
:1002100043617073004E617669004261736500004E
:1002200000000000000000000000000000000000CE
:1002300000000000000000000000000000000000BE
:1002400000000000000000000000000000000000AE
:10025000000080800000000000804040202020201E
:10026000101010100804020101020C304080000040
:100270000000000000F8F8F8F8000000000080809E
:10028000000000000000000000000000000000006E
:1002900000000000000000000000000080808000DE
:1002A000000000000000000000000000000000004E
:1002B000000000000000000000000000000000003E
:1002C000000000000000000000000000000000002E
:1002D0001EE1000001010202818080000080800098
:1002E000000000000000000080003030000001012C
:1002F00002040810204387070100B8BCBE9F5F5F5F
:100300004F4C202020201010101008080808080466
:1003100004040404020202020101010100000000C1
:1003200000000000000000000000000000000000CD
:1003300000000000000000000000000000000000BD
:10034000000000000000000000000000000000802D
:10035000700C030000180605989984437C414140C5
:10036000402021221211111109080808080404086C
:10037000081010101010110F013D7CFCFCFCFCFC5F
:100380003C0C000000000000000000000000000025
:10039000000000000000000000000000000000005D
:1003A000000000000000000000000000000000004D
:1003B00080808080804040404040202020202010CD
:1003C00010101010080808080804040404040203AC
:1003D0000202010101010101000000000000000013
:1003E000000000000000000000000000000000000D
:1003F00000000000000000000000000001030300F6
:1004000000000000000000000000000000000000EC
:1004100000000000000000000000000000000000DC
:1004200000000000000000000000000000000000CC
:1004300000000000000000000000000000000000BC
:1004400000000000000000000000000000000000AC
:10045000000080800000000000804040202020201C
:10046000101010100804020101020C30408000003E
:10047000000000000000000000000000000000007C
:10048000000000000000000000000000000000006C
:1004900000000000000000000000000080808000DC
:1004A000000000000000000000000000000000004C
:1004B000000000000000000000000000000000003C
:1004C000000000000000000000000000000000002C
:1004D0001EE1000001010202010000000080800016
:1004E000000000000000000080003030000001E14A
:1004F0001A06093135018A7C0000808080804040E6
:10050000404020202020101010100808080808047F
:1005100004040404020202020101010100000000BF
:1005200000000000000000000000000000000000CB
:1005300000000000000000000000000000000000BB
:10054000000000000000000000000000000000802B
:10055000700C03000000000000000000000101001A
:1005600040A02122121111110908080808040404EE
:100570000404040202020101010100000000000065
:10058000000000000000000000000000000000006B
:10059000000000000000000000000000000000005B
:1005A000000000000000000000000000000000004B
:1005B00080808080804040404040202020202010CB
:1005C00010101010080808080804040404040203AA
:1005D0007A7A79797979393102020404080808882D
:1005E000888780000000000000000000000000007C
:1005F00000000000000000000000000000000000FB
:1006000000000000000000000000000000000000EA
:1006100000000000000000000000000000000000DA
:1006200000000000000000000000000000000000CA
:1006300000000000000000000000000000000000BA
:1006400000000000000000000000000000000000AA
:10065000000080800000000000804040202020201A
:10066000101010100804020101020C30408000003C
:10067000000000000000000000000000000000007A
:10068000000000000000000000000000000000006A
:1006900000000000000000000000000080808000DA
:1006A000000000000000000000000000000000004A
:1006B000000000000000000000000000000000003A
:1006C000000000000000000000000000000000002A
:1006D0001EE1000001010202818080000080800094
:1006E000000000000000000080003030000001E148
:1006F0001A06093135018A7C0000808080804040E4
:10070000404020202020101010100808080808047D
:1007100004040404020202020101010100000000BD
:1007200000000000000000000000000000000000C9
:1007300000000000000000000000000000000000B9
:100740000000000000000000000000000000008029
:10075000700C030000180605989984C37C41414041
:10076000402021221211111109080808080404046C
:100770000404040202020101010100000000000063
:100780000000000000000000000000000000000069
:100790000000000000000000000000000000000059
:1007A0000000000000000000000000000000000049
:1007B00080808080804040404040202020202010C9
:1007C00010101010080808080804040404040203A8
:1007D000020201010101010100000000000000000F
:1007E0000000000000000000000000000000000009
:1007F00000000000000000000000000000000000F9
:1008000000000000000000000000000000000000E8
:1008100000000000000000000000000000000000D8
:1008200000000000000000000000000000000000C8
:1008300000000000000000000000000000000000B8
:1008400000000000000000000000000000000000A8
:100850000000000000000000008040402020202018
:100860001010101008080402020204384080000032
:100870000000000000000000000000000000000078
:100880000000000000000000000000000000000068
:1008900000000000000000000000000080808000D8
:1008A0000000000000000000000000000000000048
:1008B0000000000000000000000000000000000038
:1008C0000000000000000000000000000000000028
:1008D0001CE201010202020201000000008080000F
:1008E00000000000000000008000303000C0C1C1E6
:1008F000C2040810204080000000808080804040BA
:10090000404020202020101010100808080808047B
:1009100004040404020202020101010100000000BB
:1009200000000000000000000000000000000000C7
:1009300000000000000000000000000000000000B7
:100940000000000000000000000000000000008027
:10095000700C03000000000000000C0C0C0D0100E6
:1009600040A02122121111110908080808040408E6
:10097000081010101010110F0101000000000000FD
:100980000000000000000000000000000000000067
:100990000000000000000000000000000000000057
:1009A0000000000000000000000000000000000047
:1009B00080808080804040404040202020202010C7
:1009C00010101010080808080804040404040203A6
:1009D00002020101010101010202040408080808E1
:1009E00008070000000000000000000000000000F8
:1009F00000000000000000000000000000000000F7
:100A000000000000000000000000000000000000E6
:100A100000000000000000000000000000000000D6
:100A200000000000000000000000000000000000C6
:100A300000000000000000000000000000000000B6
:100A400000000000000000000000000000000000A6
:100A50000000808000000000008040402020202016
:100A6000101010100804020101020C304080000038
:100A70000000000000000000000000000000000076
:100A80000000000000000000000000000000000066
:100A900000000000000000000000000080808000D6
:100AA0000000000000000000000000000000000046
:100AB0000000000000000000000000000000000036
:100AC0000000000000000000000000000000000026
:100AD0001EE1000001010202010000000080800010
:100AE00000000000000000008000303000C0C1C1E4
:100AF000C2040810204080000000808080804040B8
:100B00004040202020201010101008080808080479
:100B100004040404020202020101010100000000B9
:100B200000000000000000000000000000000000C5
:100B300000000000000000000000000000000000B5
:100B40000000000000000000000000000000008025
:100B5000700C03000000000000000C0C0C0D0100E4
:100B600040A02122121111110908080808040408E4
:100B7000081010101010110F0101000000000000FB
:100B80000000000000000000000000000000000065
:100B90000000000000000000000000000000000055
:100BA0000000000000000000000000000000000045
:100BB00080808080804040404040202020202010C5
:100BC00010101010080808080804040404040203A4
:100BD00002020101010101010202040408080808DF
:100BE00008070000000000000000000000000000F6
:100BF00000000000000000000000000000000000F5
:100C000000000000000000000000000000000000E4
:100C100000000000000000000000000000000000D4
:100C200000000000000000000000000000000000C4
:100C300000000000000000000000000000000000B4
:100C400000000000000000000000000000000000A4
:100C50000000000000000000000080804040404094
:100C600020202020100804020204186080000000E8
:100C70000000000000000000000000000000000074
:100C80000000000000000000000000000000000064
:100C900000000000000000000000000080808000D4
:100CA0000000000000000000000000000000000044
:100CB0000000000000000000000000000000000034
:100CC0000000000000000000000000000000000024
:100CD0003CC2010102020404020100000000000005
:100CE00000000000000000000000606000818282BF
:100CF00084081020408000000000808080804040F8
:100D00004040202020201010101008080808080477
:100D100004040404020202020101010100000000B7
:100D200000000000000000000000000000000000C3
:100D300000000000000000000000000000000000B3
:100D40000000000000000000000000000000008023
:100D5000701906000000000000001818181B03009E
:100D600040A02224141212120B08080808050509D5
:100D7000091010101010110F0101000000000000F8
:100D80000000000000000000000000000000000063
:100D90000000000000000000000000000000000053
:100DA0000000000000000000000000000000000043
:100DB00080808080804040404040202020202010C3
:100DC00010101010080808080804040404040203A2
:100DD00002020101010101010202040408080808DD
:100DE00008070000000000000000000000000000F4
:100DF00000000000000000000000000000000000F3
:100E000000000000000000000000000000000000E2
:100E100000000000000000000000000000000000D2
:100E200000000000000000000000000000000000C2
:100E300000000000000000000000000000000000B2
:100E400000000000000000000000000000000000A2
:100E50000000000000000000008040402020202012
:100E6000101010101008080404040830408000001E
:100E70000000000000000000000000000000000072
:100E80000000000000000000000000000000000062
:100E900000000000000000000000000080808000D2
:100EA0000000000000000000000000000000000042
:100EB0000000000000000000000000000000000032
:100EC0000000000000000000000000000000000022
:100ED0001864820202020202010000000080800009
:100EE00000000000000000008000303000C0C1C1E0
:100EF000C2040810204080000000808080804040B4
:100F00004040202020201010101008080808080475
:100F100004040404020202020101010100000000B5
:100F200000000000000000000000000000000000C1
:100F300000000000000000000000000000000000B1
:100F4000000000000000000000000000000000C0E1
:100F5000380403000000000000000C0C0C0D010020
:100F600040A02122121111110908080808040408E0
:100F7000081010101010110F0101000000000000F7
:100F80000000000000000000000000000000000061
:100F90000000000000000000000000000000000051
:100FA0000000000000000000000000000000000041
:100FB00080808080804040404040202020202010C1
:100FC00010101010080808080804040404040203A0
:100FD00002020101010101010202040408080808DB
:100FE00008070000000000000000000000000000F2
:100FF00000000000000000000000000000000000F1
:1010000000000000000000000000000000000000E0
:1010100000000000000000000000000000000000D0
:1010200000000000000000000000000000000000C0
:1010300000000000000000000000000000000000B0
:1010400000000000000000000000000000000000A0
:101050000000000000000000008040402020202010
:10106000101010101008080404040830408000001C
:101070000000000000000000000000000000000070
:101080000000000000000000000000000000000060
:1010900000000000000000000000000080808000D0
:1010A0000000000000000000000000000000000040
:1010B0000000000000000000000000000000000030
:1010C0000000000000000000000000000000000020
:1010D0001864820202020202010000000080800007
:1010E00000000000000000008000303000C0C1C1DE
:1010F000C2040810204080000000808080804040B2
:101100004040202020201010101008080808080473
:1011100004040404020202020101010100000000B3
:1011200000000000000000000000000000000000BF
:1011300000000000000000000000000000000000AF
:10114000000000000000000000000000000000C0DF
:10115000380403000000000000000C0C0C0D01001E
:1011600040A02122121111110908080808040408DE
:10117000081010101010110F0101000000000000F5
:10118000000000000000000000000000000000005F
:10119000000000000000000000000000000000004F
:1011A000000000000000000000000000000000003F
:1011B00080808080804040404040202020202010BF
:1011C000101010100808080808040404040402039E
:1011D00002020101010101010202040408080808D9
:1011E00008070000000000000000000000000000F0
:1011F00000000000000000000000000000000000EF
:1012000000000000000000000000000000000000DE
:10121000000000000000000000000000000000FDD1
:10122000377A585A000004E6D6B446020021011667
:10123000000000742FE5A3E0031B01295D003D8839
:1012400089C65436C3174FE4E46738668665679AE3
:101250004B34C2F4BB2C323D0791213147CA220CDA
:10126000CF03F80A92D974623D7C100A62300FD61F
:101270007CFD750B8AA9A78668D9787886E778AF50
:101280009631B1ACBEE8FD2025A0F5775A2325F9AB
:1012900026D096979D8EC98EBF8B5CE1C50CBF2D65
:1012A00055BFE8B28171B019CF1A81207B1C63F061
:1012B0005BDA4F195C4B248E7086AED0527C5D6930
:1012C0005B2E42050CC3901F081C12775C8B5E06D8
:1012D0005F98B378931A0E0CC4253F69775EDBB92B
:1012E000D1AFC7CF04AD7F2C568B0F3F1D98EA1EA0
:1012F0004E45FBE7C01CDA194458DA77CE1922D6DE
:101300000EB6EAA6D6719521957538AC0ADD04C6ED
:10131000A9E9E9D3A8D33E999E6267188B772EA7D7
:101320000F921C211F5E2BB534BC23A53A33207CC1
:101330003CA594F0389FE0D4E78CBDDC19FF067E15
:101340004666F5A819E1FC89E29EE8802222A7A45E
:10135000B49E43EE6386813E77731000244711BB31
:1013600060311CA58B650000000000484FB854F99F
:101370002ECB520001C5029C060000142AAB0BB113
:10138000C467FB020000000004595A00000000007E
:10139000000000000000000000000000000000004D
:1013A000000000000000000000000000000000003D
:1013B000000000000000000000000000000000002D
:1013C000000000000000000000000000000000001D
:1013D000000000000000000000000000000000000D
:1013E00000000000000000000000000000000000FD
:1013F00000000000000000000000000000000000ED
:1014000000000000000000000000000000000000DC
:1014100000000000000000000000000000000000CC
:1014200000000000000000000000000000000000BC
:1014300000000000000000000000000000000000AC
:10144000000000000000000000000000000000009C
:10145000000000000000000000000000000000008C
:10146000000000000000000000000000000000007C
:10147000000000000000000000000000000000006C
:10148000000000000000000000000007087F0807BF
:10149000003E5B4F5B3E003E6B4F6B3E001C3E7C54
:1014A0003E1C00183C7E3C18001C577D571C001C3D
:1014B0005E7F5E1C0000183C180000FFE7C3E7FFDA
:1014C00000001824180000FFE7DBE7FF0030483A6F
:1014D000060E00262979292600407F0505070040D1
:1014E0007F05253F005A3CE73C5A007F3E1C1C0804
:1014F00000081C1C3E7F0014227F2214005F5F0046
:101500005F5F0006097F017F00006689956A0060C1
:10151000606060600094A2FFA2940008047E04084A
:101520000010207E20100008082A1C0800081C2A31
:101530000808001E10101010000C1E0C1E0C0030AD
:10154000383E383000060E3E0E0600000000000057
:101550000000005F000000000700070000147F1477
:101560007F1400242A7F2A120023130864620036A5
:101570004956205000000807030000001C224100CB
:10158000000041221C00002A1C7F1C2A0008083E83
:1015900008080000807030000008080808080000F3
:1015A00000606000002010080402003E5149453EE2
:1015B0000000427F400000724949494600214149EC
:1015C0004D33001814127F10002745454539003C63
:1015D0004A49493100412111090700364949493634
:1015E00000464949291E0000001400000000403454
:1015F0000000000008142241001414141414000008
:1016000041221408000201590906003E415D594E6D
:10161000007C1211127C007F49494936003E41414D
:101620004122007F4141413E007F49494941007FBD
:1016300009090901003E41415173007F0808087FF4
:101640000000417F4100002040413F01007F08141D
:101650002241007F40404040007F021C027F007F0B
:101660000408107F003E4141413E007F0909090600
:10167000003E4151215E007F091929460026494953
:1016800049320003017F0103003F4040403F001FFB
:101690002040201F003F4038403F0063140814637F
:1016A000000304780403006159494D4300007F4161
:1016B000414100020408102000004141417F000424
:1016C00002010204004040404040000003070800BF
:1016D000002054547840007F284444380038444463
:1016E000442800384444287F0038545454180000DB
:1016F000087E09020018A4A49C78007F08040478DE
:101700000000447D4000002040403D00007F102844
:1017100044000000417F4000007C04780478007C95
:101720000804047800384444443800FC1824241881
:101730000018242418FC007C0804040800485454B1
:1017400054240004043F4424003C4040207C001CFE
:101750002040201C003C4030403C004428102844DD
:10176000004C9090907C004464544C440000083637
:101770004100000000770000000041360800000230
:1017800001020402003C2623263C00000000000069
:1017900000404040F0F8F8FF38FFF8F83FF8F8FF55
:1017A00038FFF8F8F040404000000000000080C022
:1017B000C0C0800000C0C08000000080C0C000C069
:1017C000C0000080C0C00000000000C0C0C0C0C099
:1017D00000C0C00000000000000000000000000089
:1017E00000000000000000000000000000000000F9
:1017F00000000000000000000000000000000000E9
:1018000000000000000000000000C0F0F8FC3E1ED8
:1018100006010000007F4141417F007F4141417F3F
:10182000000080C0E07E5B4F5BFEC00000C000DCBB
:10183000D7DEDEDED7DC00C00000000000000000C4
:101840000000000000000000000000000000000098
:1018500000494949FFFFFFFFE0DFBFBF00BFBFDF17
:10186000E0FFFFFFFF49494900000000001F3F6003
:1018700060E0BF1F007F7F071E381E077F7F007F4D
:101880007F0E1F3B716000000000007F7F0C0C0C7E
:10189000007E7E007F7E0303007F7E03037E7E0347
:1018A000037F7E000F3E703C063C703E0F00327B93
:1018B00049493F7E007F7E0303001E3F69696F2612
:1018C00000000000000000000000030F1F3F3C78F4
:1018D00070600000007F4141417F007F4141417FB6
:1018E00000307B7F7830202030787F3B0003000F72
:1018F0007F0F0F0F7F0F00030000000000000000AB
:1019000000000000000000000000000000000000D7
:1019100000010101070F0F7F0F7F0F0F7E0F0F7F59
:101920000F7F0F0F07010101000000000000000001
:1019300000000101000000000000000000000000A5
:101940000000000000000000000000000000000097
:101950000000000000000000000000000000000087
:101960000000000000000000000000000000000077
:101970000000000000000000000000000000000067
:101980000000000000000000000000000000000057
:101990000000000000000000000000000000000047
:1019A0000000000000000000000000000000000037
:1019B0000000000000000000000000000000000027
:1019C000000000000000000000000000AF00AE09B1
:1019D000025B00030100A0FA0904000001030101F9
:1019E00000092111010001224000070581030800C0
:1019F0000109040100020300000009211101000196
:101A000022220007058203200001070503032000AE
:101A10000109040200010300000009211101000175
:101A20002232000705840320000112010002000099
:101A30000008424642500100010203011C037600E7
:101A4000690061006C003A006600360034006300F3
:101A5000320062003300630000001203500068008F
:101A60006F0042006F00610072006400000012030A
:101A7000660072006F0073007400620075006E00F3
:101A800000000403090411241FBECFEFDAE0DEBF1B
:101A9000CDBF11E0A0E0B1E0E6ECF0E602C00590B9
:101AA0000D92A637B107D9F724E0A6E7B1E001C04F
:101AB0001D92AA3BB207E1F70E9452260C943D30DA
:101AC0000C940000CF93DF934091B8045091B90477
:101AD000485B52409A013E5F21303240C0F020E026
:101AE00032E0241B350B6091B6027091B702FC0105
:101AF000CA01240F351FC1E0D0E08217930750F0D0
:101B00007093B7026093B602DF91CF91089520E001
:101B100032E0E9CF4491DC01A854BD4F5C914517F8
:101B200081F04C93AC01A5E056954795AA95E1F755
:101B3000DE0102C0AA0FBB1F4A95E2F7AD016A2B76
:101B4000752B01963196D9CFE8EDF0E080818E7F3C
:101B500080831092E2001092DA001092E100A0EE71
:101B6000B0E08C9181608C9380818F77808319BCE9
:101B7000A7EDB0E08C918E7F8C9380818F7E8083E7
:101B800010929B0208952091E4003091E50095E6C3
:101B9000A9012091EC00822F817020FF06C0809166
:101BA000E80080FF06C080E008952091E80022FD53
:101BB0001AC08091B102882389F0853089F0809124
:101BC000EB0085FD0FC02091E4003091E500421745
:101BD0005307F9F29150E1F684E0089582E0089508
:101BE00083E0089581E00895EF92FF920F931F9391
:101BF000CF937C018B010E94C30DC82F811117C0A8
:101C00008091E80085FD0BC08091E8008E7780937D
:101C1000E8000E94C30D882399F3C82F08C0F7017C
:101C200081917F018093F1000150110949F78C2FB8
:101C3000CF911F910F91FF90EF900895CF93FC01EA
:101C40008091B102843001F5C091E900CF702091FC
:101C5000EC00922F917020FD90E8C92B82E08093D8
:101C6000E9008091E80080FF0CC050E040E060E2B5
:101C700070E0CF010E94F40D8091E8008E77809390
:101C8000E800CF70C093E900CF9108958091A90238
:101C900087FF13C08091E80082FF06C08091E800B2
:101CA0008B778093E80004C08091B1028111F2CF5C
:101CB00008958091B1028823D9F38091E80080FFD4
:101CC000F8CF8091E8008E77ECCF982F9093E900C1
:101CD000242F762F50E0891731F07091EC0020917D
:101CE000ED005091F00021FD07C09F5F973071F724
:101CF0008093E90081E008953091EB003E7F3093BE
:101D0000EB003091ED003D7F3093ED003091EB0022
:101D100031603093EB007093EC002093ED00509312
:101D2000F0002091EE0027FDE0CF80E00895B0E0C4
:101D3000A0E0EDE9FEE00C94212FC8EDD0E0888111
:101D40008F7E8883E7EDF0E080818160808384E08E
:101D500082BF81E080939B0288818E7F888302EE20
:101D600010E0F80110821092DA0081EEC82ED12C1A
:101D7000F601108288818F778883888180688883C4
:101D800088818F7D888319BC1092B1021092A802BD
:101D90001092A7021092A60290EEE92EF12CF70104
:101DA00080818B7F808388818160888342E060E0CE
:101DB00080E00E94650EF60180818E7F8083F801AD
:101DC000808181608083808188608083F701808149
:101DD0008E7F8083888180618883CDB7DEB7E8E01D
:101DE0000C943D2FFC018091AF029091B0028617B8
:101DF0009707A0F06115710529F49091E8009E778E
:101E00009093E80090E06115710551F4911108C0BC
:101E10008091E80082FF34C080E00895BC01F2CFD9
:101E20008091B1028823C1F18530C1F18091E80031
:101E300083FD30C08091E80082FDEACF8091E80008
:101E400080FFE1CF8091F3002091F200382F6115DF
:101E5000710519F02830310558F091E0283031052E
:101E600009F090E02091E8002E772093E800CBCF96
:101E700081918093F100615071092F5F3F4FE7CF4F
:101E80008091B102882341F0853041F08091E800D3
:101E900083FFBECF81E0089582E0089583E0089536
:101EA0000895089580919D02089587E797E790939C
:101EB00001088093000888E19AE00FB6F894A8958D
:101EC000809360000FBE90936000FFCF2FB7F8940F
:101ED0006091940270919502809196029091970280
:101EE0002FBF08959C01FC0132969FEF80E0419145
:101EF000461751F09F3F19F4411101C0982F8F5F91
:101F00008630A9F79F3F09F40895290F311D97FDE9
:101F10003A95F901628308952091910230919202DD
:101F20002817390771F09093920280939102E09103
:101F30008F02F0919002309721F00084F185E02D1E
:101F40000995089520918D0230918E022817390746
:101F500071F090938E0280938D02E0918F02F09148
:101F60009002309721F00680F781E02D09950895C1
:101F7000E0918F02F0919002309729F00190F0816A
:101F8000E02D0995089580E008952091800236E0C3
:101F9000839FC0011124629F800D911D1124811522
:101FA00022E0920714F090E080E088549D4F9093D7
:101FB000B9048093B804089580E00895F894E82F58
:101FC000E295EF70F0E031A1282F2F7081E090E0D2
:101FD00001C0880F2A95EAF7982F9095932391A333
:101FE00092A1892B82A3789408959091EE0192FF9B
:101FF00006C0282F28712830F9F4877F846093FF6A
:1020000006C0282F28712831F1F4877E8461209141
:10201000EF0120FF06C0382F38713830D9F4877FA0
:10202000816021FF06C0282F28712831D1F4877ED6
:10203000816194FD877E0895282F24712430F9F65C
:102040008B7F8860DCCF282F2471243101F78B7EB1
:102050008861DDCF382F3171313019F78E7F88607C
:10206000E0CF282F2171213121F78E7E8861E1CFC9
:10207000CF93DF93EC0182389105A9F1D8F5813334
:10208000910509F496C048F58932910509F48AC092
:102090008A9709F495C0C11522E5D20708F0B6C0A9
:1020A000C11531E5D30708F026C1C83ED10508F0B7
:1020B0009CC0C03ED10560F5C83AD10508F087C084
:1020C000C53AD10508F0EFC0C130D10509F120971C
:1020D000F9F0C430D105E0F440C08533910509F42E
:1020E0005AC0C997C1F68091EE01837089F0C0EEA5
:1020F000D0E00EC0833E910599F170F4803E9105C9
:1021000001F1823E910539F68091EE0182FD21C0F8
:10211000CE01DF91CF910895863E910561F1873E12
:10212000910571F1843E910509F0B5CF8091EF01E1
:1021300081FFEECF8091EE01C7EED0E084FD0DC0AF
:10214000E7CF8091EE0180FD07C19091EF0190FFF4
:10215000DFCFC3EED0E084FFDBCFD0E0C0E0D8CF4C
:102160008091EE0182FDFBC09091EF0190FDBFCF09
:1021700084FFCECFF2CF8091EE0183FDDDCFC8CFBB
:102180008091EE0183FDEEC09091EF0191FFF0CFC1
:10219000C4EED0E0BDCF8091EE0185FFB9CFC9E29A
:1021A000D0E0B6CF8091EE0185FFB2CFC5E3D0E09D
:1021B000AFCF8091EE0186FFABCFCAE2D0E0A8CFCF
:1021C0008091EE0186FFA4CFC1E3D0E0A1CFCF3B49
:1021D000D10518F6C85AD0E0CC0FDD1FCF5DDE4F19
:1021E0000990D881C02DD46493CFC11540E5D407A0
:1021F00008F064C0C11580E4D80708F05CC0CE01C7
:102200009A9581159F4108F483CFA7CFC11536E574
:10221000D30718F5C11545E5D40708F084C0C115EA
:1022200084E5D80708F07AC09C2F969596959E0174
:1022300023703327C115D34508F462C0C1E0D0E054
:1022400002C0CC0FDD1F2A95E2F730E2939FC00158
:102250001124C82BD92BDA685BCFC1158AE5D807C2
:1022600078F4C11599E5D90708F068C0C11528E5CB
:10227000D20708F472CFDC2FCC27C06FD06A48CFCA
:10228000CE0190568115904208F067CF8D2F8F7147
:102290000E94F50F90E0982F882788279F719C0156
:1022A0002C2BE90149C0C55AD0E0C25EDE4FC8817F
:1022B000D0E0D0642DCFDF70D06A2ACFCE01E4E029
:1022C00096958795EA95E1F783702C2F26952695AC
:1022D000237040E2249F90011124382B8C2F8370AF
:1022E000C1E0D0E002C0CC0FDD1F8A95E2F7C22B1F
:1022F000D32BDC680DCFDC2FCC27C16FD06A08CF81
:10230000C1E0D0E002C0CC0FDD1F2A95E2F720E249
:10231000929FC0011124C82BD92BEBCFDC2FCC27E7
:10232000C46FD06AF5CE8C2F0E94F50FC82FD0E075
:10233000DC2FCC27CC27DF71D062EACE8C2F8F70B8
:102340000E94F50F34E0D695C7953A95E1F7CF7026
:102350009C2FEC01D069DCCEC9E3D0E0D9CEC2EE2F
:10236000D0E0D6CEC6EED0E0D3CE8091E101882376
:1023700031F01092E1011092E0011092DF01089516
:1023800080959091DE0198239093DE01089510923C
:10239000D4011092D3011092D20108958091D101FD
:1023A0009091A001981301C008958F5F8770FACFB4
:1023B000983080F5883070F548E0949F90011124A2
:1023C000820F932F911D682F677023E09695879554
:1023D0002A95E1F7FC01EE0FFF1FE80FF91FEE57FA
:1023E000FE4F50E040E080E0219130E0062E02C038
:1023F000369527950A94E2F721703327042E01C001
:10240000220F0A94EAF7822B4F5F5F4F433051054A
:1024100059F7089580E00895983098F5883088F548
:1024200048E0949F90011124820F932F911D282F33
:10243000277041E001C0440F2A95EAF723E0969502
:1024400087952A95E1F7FC01EE0FFF1FE80FF91FB2
:10245000EE57FE4F90E080E070E05191DF01119760
:102460009B01082E02C0369527950A94E2F7217049
:1024700021952527242325272C9301968330910528
:1024800061F70895982F92959F7011F0892F94E02D
:10249000282F2695269511F09E5F822F869509F0AC
:1024A0009F5F892F08959C013A9521153F4150F572
:1024B000FC01EE27F170BC0166277270AC01442765
:1024C00054709C012227387094FF0EC080E1EF2BDE
:1024D00009F480E0672B09F08062452B09F08064E5
:1024E000232B89F08068089581E0EF2B09F480E0C8
:1024F000672B09F08260452B09F08460232B19F0CB
:102500008860089580E00895B0E0A0E0EAE8F2E194
:102510000C94212F6C017B0164E670E088E70E9437
:102520001A2EEC0197FD12C010E000E0F601E00F5A
:10253000F11F849164E670E00E94882EEC01892BE3
:1025400029F40F5F1F4F0E151F0581F70E94FF2E04
:10255000CE01CDB7DEB7E8E00C943D2F80918B0221
:1025600090918C02911103C091E0892708958823EE
:1025700069F062E070E08DEC99E10E948412892B91
:1025800019F080918B02089510928B0280918B023A
:10259000EBCFCF93C0918B0280918C028823D1F036
:1025A0000E94660F605A75418F4F9F4F609387025C
:1025B000709388028093890290938A02C11108C0A7
:1025C00062E070E08BEC99E10E948412892B29F083
:1025D000C0918B028C2FCF91089581E080938B0264
:1025E000F7CF8093980270939A026093990280913A
:1025F000B1028430F9F48093E9008FEF9091E80004
:10260000815095FD06C095ED9A95F1F70000811176
:10261000F5CF8091E80085FF0DC050E040E063E019
:1026200070E088E992E00E94F40D8091E8008E77D6
:102630008093E8000895BC0184E00E94F11208959F
:10264000BC0183E00E94F1120895CF93DF93EC0167
:1026500081E08093E9008FEF9091E800815095FD33
:1026600006C095ED9A95F1F700008111F5CF8091A4
:10267000E80085FF14C050E040E068E070E0CE0163
:102680000E94F40D8091E8008E778093E80088E046
:10269000FE01AEE9B2E001900D928A95E1F7DF917B
:1026A000CF9108951F93CF93DF93162FC091B80455
:1026B000D091B9048A30D1F420918002CE01885B98
:1026C0009240622F70E00E94032F281B822F66E049
:1026D0000E944E2FC82FC15020F4DF91CF911F913F
:1026E000089560E080E20E945213F5CF8D30E9F446
:1026F000C85BD24020918002622F70E0CE010E9420
:10270000032F281B822F9E01280F311D21153240D7
:1027100018F080E0D0E0C0E0C80FD11DC854DD4FF4
:10272000D093B904C093B804D8CF96E0FE01A1E8D5
:10273000B2E001900D929A95E1F7803E90F186E02B
:10274000FE0111928A95E9F7C091B804D091B904BD
:10275000111133C046E050E0BE0181E892E00E94D2
:10276000E72F9E01285B3240892B91F52A5F3F4F6E
:1027700040918002642F70E0C9010E94032F481B22
:10278000463010F4240F311D211572E0370710F088
:1027900030E020E028543D4F3093B9042093B80432
:1027A0009CCFF6E08F9FB001112465577B4E46E029
:1027B00050E0CE010E94DE2FC7CF9E012A5F3F4F1F
:1027C000FE012E173F0731F2808180958193F9CF6A
:1027D000C90145E0969587954A95E1F741E050E0BB
:1027E000BA0102C0660F771F8A95E2F7CB016091AC
:1027F000B6027091B702862B972BB9016B5F7F4FA2
:10280000E5E076956795EA95E1F702C0440F551F1C
:102810006A95E2F7842B952B9093B7028093B602CA
:10282000A5CF1F93CF93DF93EC01162FFE01849168
:10283000811104C0DF91CF911F910895612F0E94F3
:1028400052132196F3CFCF93DF93C7E2D1E060E03C
:10285000CE010E9409302196C11584E0D807B9F74E
:10286000DF91CF9108951F93CF93DF93122F823082
:10287000E8F46830D8F44830C8F420E1629FE00101
:10288000112450E0440F551FC40FD51F20E8829F2C
:10289000C0011124C80FD91F632FCE0187960E9453
:1028A0000930612FCE0188960E940930DF91CF91C7
:1028B0001F9108958F929F92AF92BF92DF92EF92F5
:1028C000FF920F931F93CF93DF9380907A029090A3
:1028D0007B0281E090E090937B0280937A028BE808
:1028E000E82E83E1F82ED12C8701C0E013C0F5015A
:1028F000259134914D2F6C2F8D2D0E94331482E041
:10290000A80EB11CDF5FD83091F7005F1F4FCF5F7B
:10291000C83019F05801D0E0EACF80E8E80EF11C89
:1029200081E0D81619F0DD24D394DECF90927B029B
:1029300080927A02DF91CF911F910F91FF90EF90DB
:10294000DF90BF90AF909F908F900895CF93C82F46
:102950006FEF81116CE683E290E00E9409306FEF27
:10296000C11162E084E290E00E9409306FEFC11172
:1029700061EF85E290E00E940930CF91089580E0F8
:102980000E94A61460E086E290E00E9409300E9456
:102990005A140E94231481E00E94A61408950F93F4
:1029A0001F93CF93DF93823038F5683028F5483095
:1029B00018F520E1629F8001112450E0440F551F5B
:1029C000040F151F30E8839FC0011124080F191F41
:1029D000C80187960E94FB2FC82FD0E0DC2FCC27A0
:1029E000C80188960E94FB2F9E01282BC901DF9108
:1029F000CF911F910F91089590E080E0F8CF462F7E
:102A000020917E0230917F02232B99F4703F39F49C
:102A1000603F79F480917C0290917D02089582302C
:102A200040F4783030F4683020F4672F0E94CF14DF
:102A3000089590E080E00895CF92DF92FF920F9387
:102A40001F93CF93DF936C010091B5028091E20157
:102A5000082BC7E0D0E010E0FC2EC8010C2E02C00D
:102A6000959587950A94E2F780FD0CC02197A0F711
:102A7000F12C8F2DDF91CF911F910F91FF90DF905F
:102A8000CF900895B6018C2F0E94FF140E94381039
:102A9000019761F3EECFCF93DF93EC010E941C15F9
:102AA000BE010E94FF140E943810DF91CF9108955B
:102AB000FC01808191810E944B1592959F70963008
:102AC00091F058F4925F9F70923058F4803F19F063
:102AD00030F4883E30F481E008959A5FF4CF843F6B
:102AE000D1F380E00895883EB0F3813FD1F7F3CF72
:102AF00083E290E00E94FB2F8C3689F484E290E020
:102B00000E94FB2F823059F485E290E00E94FB2F57
:102B100091E0813F09F090E0892F8170089580E075
:102B2000FCCFCF9384E090E00E94FB2FC82F82E27D
:102B300090E00E94FB2F982F8C2FCF91089568EE84
:102B40007EEF90E080E00E94273060E082E090E03D
:102B50000E94093060E083E090E00E94093010920A
:102B6000E20160E084E090E00E94093064E082E2EB
:102B700090E00E94093060E085E090E00E9409301A
:102B800060E086E090E00E9409306FEF87E090E01F
:102B90000E94093040E050E0BA0188E090E00E94D5
:102BA0001B3060E08DE090E00E94093040E050E092
:102BB000BA0188E190E00E941B3060E087E190E07C
:102BC0000E94093040E050E0BA018CE190E00E94A0
:102BD0001B3070E060E080E290E00E94273040E02F
:102BE00050E0BA0188E190E00E941B3080E00E9432
:102BF000A6140E94BF1440E050E0BA018FE090E0BC
:102C00000E941B3040E050E0BA0183E190E00E9456
:102C10001B3008951F920F920FB60F9211242F931D
:102C20003F934F935F936F937F938F939F93AF9354
:102C3000BF93EF93FF938091E10082FF09C08091E1
:102C4000E20082FF05C08091E1008B7F8093E1006C
:102C50008091DA0080FF24C08091D80080FF20C0DE
:102C60008091DA008E7F8093DA008091D90080FF16
:102C70009DC080E189BD82E189BD09B400FEFDCF20
:102C800081E08093B10280919B02811109C00E9472
:102C9000A40D0E94970E8091E20084608093E20070
:102CA0008091E10080FF17C08091E20080FF13C097
:102CB0008091E2008E7F8093E2008091E20080614B
:102CC0008093E2008091D80080628093D80019BC84
:102CD00085E08093B1028091E10084FF2BC0809158
:102CE000E20084FF27C080E189BD82E189BD89B50A
:102CF000982F917080FFFBCF8091D8008F7D8093BB
:102D0000D8008091E1008F7E8093E1008091E20005
:102D10008F7E8093E2008091E20081608093E200E8
:102D20008091A802882309F447C084E08093B1020F
:102D30008091B1028091E10083FF27C08091E20081
:102D400083FF23C08091E100877F8093E10082E0D0
:102D50008093B1021092A8028091E1008E7F80934F
:102D6000E1008091E2008E7F8093E2008091E2009A
:102D700080618093E20042E060E080E00E94650EA6
:102D80008091F00088608093F000FF91EF91BF91F7
:102D9000AF919F918F917F916F915F914F913F91F3
:102DA0002F910F900FBE0F901F90189519BC109285
:102DB000B10210929B0274CF8091E30087FD93E0F3
:102DC0009093B102B5CF78941F921FB61F92112431
:102DD0008F939F93AF93BF938091940290919502AC
:102DE000A0919602B09197020196A11DB11D80930A
:102DF000940290939502A0939602B0939702BF918C
:102E0000AF919F918F911F901FBE1F9018959C01AD
:102E10004FB7F8948091940290919502A0919602F8
:102E2000B09197024FBF821B930B08952FB7F89470
:102E30008091940290919502A0919602B091970290
:102E40002FBF0895A8E0B0E0E8E2F7E10C941E2F50
:102E50008E010F5F1F4F88E0F80111928A95E9F704
:102E60008FE4C82E81E0D82EF12CE12CAA24A39463
:102E7000B12CF60181916F018F3F09F443C0F894A2
:102E8000E82FE295EF70F0E021A18F70A50102C05C
:102E9000440F551F8A95E2F7CA01922F982B91A3F0
:102EA00092A18095892382A3789400C0E7E5F1E0A0
:102EB000912C31E021912F3F09F461C0A22FA295FE
:102EC000AF70B0E090968C9190E02F7002C0959515
:102ED00087952A95E2F780FD52C0832F982A330FF9
:102EE00051E0EF35F50731F7F601319780818F3FDB
:102EF00011F00E94DE0F80EA8A95F1F7F801EE0DDD
:102F0000FF1D9082EFEFEE1AFE0AF8E0EF16F104D3
:102F100009F0AFCF48E050E0B80186EE91E00E94A2
:102F2000E72FFF24F394009709F4F12C892B49F142
:102F300088E0F801A6EEB1E001900D928A95E1F7E4
:102F400081E08093E5010E9416179093E40180933D
:102F5000E3018091E3019091E4010E940717059736
:102F6000A0F0E6EEF1E0A2E7B2E08EEE91E0219172
:102F70002D938E179F07D9F71092E50106C080E0C8
:102F8000ADCF8091E5018111E4CF8F2D2896EBE044
:102F90000C943A2F8091DE019091DD01892B809372
:102FA00078018091E101882319F10E941617209180
:102FB000DF013091E001821B930B8838934110F0C0
:102FC0000E94B511809178019091E101892B809345
:102FD000780120E08AE791E0FC013191CF013111C5
:102FE0002F5FF1E080389F07B9F721110E94B511DA
:102FF00048E050E065ED71E088E791E00E94E72F3E
:10300000892BA9F088E0E8E7F1E0A5EDB1E00190B7
:103010000D928A95E1F7E0918F02F091900230973E
:1030200031F00280F381E02D88E791E00995089561
:1030300090E080E00E94A20F90E080E00E948C0F60
:103040001092DD010E94CA1708958093B5020E9474
:10305000181808958091B502982F9670963021F433
:1030600088600E9425180895877FFBCF21E030E01B
:1030700001C0220F8A95EAF720958091B50282233C
:103080000E94251808959091D401809589238093FA
:10309000D401282F277091F4282F082E000C330B11
:1030A0009217130659F09091EF0192FF07C0859592
:1030B000859585950E9436180E94C7110895CF9373
:1030C000C091EF01C2FB992790F9981791F080FB0E
:1030D000C2F9C093EF016091EE0184E090E00E949C
:1030E00009306C2F82E290E00E94093082E00E9459
:1030F0004318CF91089521E030E001C0220F8A9556
:10310000EAF78091B502822B0E94251808958093DA
:10311000E2010E94181808951092DE01EAE7F1E03A
:1031200086E0DF011D928A95E9F70E94181808953C
:10313000AAE2B0E0EEE9F8E10C94262F89EA92E0E9
:103140002091F100DC012D93CD01B2E0813B9B0782
:10315000B9F78091AA02833009F472C0B8F48130C3
:1031600009F449C0823009F4B3C08091E80083FFBC
:1031700096C28091A9029091AA029A3008F08FC25B
:10318000E92FF0E0E15CFF4C0C94AF2F8A3009F49A
:103190008EC08B3009F471C0893039F78091A90253
:1031A000813219F78091AD029091AE02009711F033
:1031B0000297D9F68091E800877F8093E80080919C
:1031C000E80082FF38C09091F3008091F2000297EE
:1031D00031F48091F100813011F0863021F480913A
:1031E000F10080939D028091E8008B778093E80046
:1031F0000E94460EBACF8091A902813A09F0B5CF5C
:103200008091E800877F8093E8008091AD029091E3
:10321000AE02892B61F468E08EE992E070E00E94D2
:10322000F20E8091E8008B778093E8009ECF60E0FB
:1032300090E080E0F3CF8091B1028111C0CF95CFB3
:103240008091A902813A09F090CF8091AD029091CE
:10325000AE02892B09F089CF8091E800877F8093A7
:10326000E8008091E80080FFFCCF809115018093F9
:10327000F1008091E8008E77B9CF8091A902813268
:1032800009F073CF8091AD029091AE02892B09F0C5
:103290006CCF8091E800877F8093E8000E94460E03
:1032A0008091AB02809315010E948C185ECF8091B3
:1032B000A902813209F059CF8091E800877F80937D
:1032C000E8000E94460E8091AC0280939C024DCF94
:1032D0008091A902813A09F048CF8091E800877F68
:1032E0008093E8008091E80080FFFCCF80919C02F1
:1032F000BECF803899F0823809F0D1C18091AD02FB
:103300008F70873008F0CBC18093E9008091EB008B
:1033100085FB882780F91092E90006C08091A602FB
:103320009091A702911182609091E800977F90930D
:10333000E8008093F1001092F1008091E8008E7710
:10334000AAC1882309F498C1823009F0A8C18091EC
:10335000AB0281119BC18091AD028F702FEF280FBE
:10336000263008F09CC18093E9002091EB0020FFFB
:103370008DC1933031F48091EB0080628093EB003B
:1033800085C19091EB0090619093EB0021E030E0DB
:1033900001C0220F8A95EAF72093EA001092EA0012
:1033A0008091EB008860EACF811179C11091AB0266
:1033B0001F778091E3008078812B8093E3008091D8
:1033C000E800877F8093E8000E94460E8091E80025
:1033D00080FFFCCF8091E30080688093E30082E06F
:1033E000111183E08093B1025AC18058823008F0F5
:1033F00056C12091AB023091AC022C3DE3E03E0778
:10340000A1F583E08A838AE289834FB7F894DE01CD
:10341000139620E03EE051E2E32FF0E05093570096
:10342000E49120FF03C0E295EF703F5FEF708E2FB5
:1034300090E0EA30C0F0C7968D939D932F5F2431C2
:1034400059F74FBF8091E800877F8093E8006AE2D8
:1034500070E0CE0101960E94F20E8091E8008B7719
:103460008093E8001CC1C096E7CF8091AD02909197
:10347000AE02432F55274330510509F44AC078F571
:103480004130510509F485C08BE590E0EFECF9E19E
:103490004230510509F003C12091E800277F2093B5
:1034A000E8002091AF023091B0028217930708F430
:1034B0009C0140E02115310509F070C041116EC03A
:1034C0008091E80082FDC9CF8091B102882329F262
:1034D000853019F28091E80083FFF2CFBECF4132F0
:1034E000510509F447C04232510509F0D8C0833074
:1034F000910508F0D4C0FC01EE0FFF1FE659FE4F06
:103500000190F081E02D89599E4FDC018C9190E073
:103510001DC0332721303105E9F02115310579F03F
:1035200022303105F9F02330310509F0B8C0ECE361
:10353000FAE1E4918E2F90E0ECE3FAE107C0E2E8D3
:10354000FAE1E4918E2F90E0E2E8FAE1009709F4C5
:10355000A6C0A2CFEEE6FAE1E4918E2F90E0EEE66F
:10356000FAE1F4CFEAE5FAE1E4918E2F90E0EAE5A2
:10357000FAE1ECCF8330910508F091C0880F991FD4
:10358000FC01E059FE4F0190F081E02D89E090E0D0
:1035900083CF82E190E0EAE2FAE17ECF8091B1024E
:1035A000882309F45ACF853009F457CF8091E80079
:1035B00083FD53CF8091E80082FD82CF8091E800A7
:1035C00080FF78CF9091F3008091F20021153105B2
:1035D00019F08830910550F041E0089709F040E07B
:1035E0008091E8008E778093E80064CF4491409307
:1035F000F1003196215031090196E8CF803809F069
:103600004EC08091E800877F8093E8008091A802F7
:103610008093F10092CE811142C01091AB02123022
:10362000F0F58091E800877F8093E8001093A8026E
:103630000E94460E112311F084E005C08091E30042
:1036400087FDFACF81E08093B10242E061EC81E036
:103650000E94650E42E261EC84E00E94650E42E247
:1036600061EC82E00E94650E42E260EC83E00E9421
:10367000650E8091B10213C08091AB02813079F464
:1036800081E0933009F080E08093A7021092E90076
:103690008091E800877F8093E8000E94460E809129
:1036A000E80083FF0AC08091E800877F8093E800EC
:1036B0008091EB0080628093EB00AA96E3E00C948B
:1036C000422F1F920F920FB60F9211242F933F9308
:1036D0004F935F936F937F938F939F93AF93BF931A
:1036E000CF93DF93EF93FF93D091E900DF70809148
:1036F000EC00C82FC17080FDC0E81092E9008091F5
:10370000F000877F8093F00078940E9498181092C0
:10371000E9008091F00088608093F000CD2BCF709D
:10372000C093E900FF91EF91DF91CF91BF91AF91ED
:103730009F918F917F916F915F914F913F912F91C9
:103740000F900FBE0F901F9018950E948C182FEFAE
:1037500084E39CE0215080409040E1F700C00000ED
:1037600088E19AE00FB6F894A895809360000FBEA8
:1037700090936000FFCF882341F080959091DD0108
:1037800089238093DD010E94CA170895882339F0A8
:103790009091DD01982B9093DD010E94CA17089546
:1037A000882321F00E94C0110E94CA17089588231F
:1037B00039F09091DE01982B9093DE010E94CA1798
:1037C0000895882391F19CEF980F913A80F4EAE7ED
:1037D000F1E020E831E09191891303C0DF011197F6
:1037E0001C922E173F07B9F70E94CA17089590E25E
:1037F000980F983050F4877091E001C0990F8A9526
:10380000EAF7892F0E94C011EFCF9BE5980F933004
:1038100028F490E080E00E94A20F0895885A873132
:1038200020F490E080E00E948C0F0895CF93C82F81
:103830008823B1F08CEF8C0F813A00F5EAE7F1E0D4
:1038400080E891E0DF012D91C21761F08A179B0794
:10385000D1F76C2F88E791E00E94720F0E94CA177F
:10386000CF9108952191C21303C0DF0111971C92DB
:103870008E179F07B9F70E94CA17EBCF80E28C0F13
:10388000883068F4C77021E030E001C0220FCA958B
:10389000EAF78091DE01822B8093DE01DFCFEBE53A
:1038A000EC0FE33040F4F0E0E25EFE4F808190E008
:1038B0000E94A20FD5CFC85AC73190F6EC2FF0E086
:1038C000EE0FFF1FEF5DFE4F808191810E948C0FF4
:1038D000C7CF1F93CF93DF93182FD0E0C0E0893379
:1038E00011F4C0E5D0E0812F0E94161C209739F416
:1038F000812F0E94E11BDF91CF911F9108958FE9E5
:103900009FE00197F1F700C000002197EFCF0F93E0
:103910001F93CF93DF93C62FD42F022FFC018281F8
:103920008823A9F06093B4020E9416179093B30203
:103930008093B202C77081E001C0880FCA95EAF790
:103940000E94D71BDF91CF911F910F910895809115
:10395000B402681332C08091B2029091B3020E9407
:103960000717883C910548F510E21D0FCD17B9F0F7
:1039700080E28C0F883040F4C77081E001C0880F6E
:10398000CA95EAF70E94D01B183048F481E09D2FB9
:10399000977001C0880F9A95EAF70E94D71B802F75
:1039A0000E94691C183070F6D77081E001C0880F42
:1039B000DA95EAF70E94D01BC5CFC77081E001C03D
:1039C000880FCA95EAF7F6CFB0E0A0E0EAEEFCE196
:1039D0000C941F2FEC018AE0A82E2881222309F4E1
:1039E0008FC02130C9F599818A81913021F42296C6
:1039F0000E94691C05C0923029F422960E94161C70
:103A00002196EBCF933021F422960E94E11BF8CF50
:103A1000943011F02196F4CF229630E020E0AE01F0
:103A20004F5F5F4F8053990B8A30910550F02150C2
:103A3000310930F38FE99FE00197F1F700C00000F2
:103A4000F6CFA29EB001A39E700D11249C01260FFB
:103A5000371F8981EA01E3CFE22FF0E0E059FE4F02
:103A6000B490822F86958695869590E0FC01E05A69
:103A7000FE4FE4902770F12C022E02C0F594E794DB
:103A80000A94E2F731E0E322FF24FC01E05BFE4F01
:103A9000C490D12C022E02C0D594C7940A94E2F7A8
:103AA00031E0C322DD24FC01E05CFE4F049110E014
:103AB00002C0159507952A95E2F701701127E114C8
:103AC000F10419F081EE0E94161CC114D10419F002
:103AD00086EE0E94161C8B2D0E94691CC114D10415
:103AE00019F086EE0E94E11BE114F10419F081EE59
:103AF0000E94E11B0115110509F482CF8CE278CFF9
:103B0000CDB7DEB7EAE00C943B2F9091EF0192FF26
:103B100010C098E0899F90011124622B6093D4011A
:103B20000E947B180E9416179093D3018093D201B4
:103B300008950E947B180895A7E1B0E0E2EAFDE154
:103B40000C94262F4B8B5C8B6D8B7E8B8F8B611136
:103B50001092DD011A8A198A85E0FE017396DE0152
:103B60001D9601900D928A95E1F78091EF0182FFF9
:103B70001CC00E9416172091D2013091D301821BE4
:103B8000930B8838934120F08091D40182FF78C054
:103B90000E9416172091DF013091E001821B930BE8
:103BA0008838934110F00E94B51186E0FE013D96E1
:103BB000DE01179601900D928A95E1F7CE010796E6
:103BC0000E94CA24811112C086E0FE013796DE01F0
:103BD000119601900D928A95E1F78A859B85892B34
:103BE00029F088859F8189238F3F81F516E0809198
:103BF000D1019091A001891317C06796E3E00C945E
:103C0000422F96E0929FD001939FB00D1124AF55A3
:103C1000BE4FFE01319601900D929A95E1F7809387
:103C2000A0010E94CE11E2CF819FC00111248F55C7
:103C30009E4F0E94CA24882301F38091D10190E015
:103C40000196877099278093D101D1CF2091A0014F
:103C500030E0C9010196877099274091D10148173A
:103C6000190679F60E948C181092A0011092D101C9
:103C700086E0EAE9F1E0DF011D928A95E9F7B6CF27
:103C800082E00E94431884CFA5E0B0E0EAE4FEE1C0
:103C90000C94252F8C0190937D0280937C0201155A
:103CA00080E21807C0F4802F0E94E11BC8010E9427
:103CB00053129801205E31092830310518F00115A2
:103CC000110531F40E94D01B2596E4E00C94412F9D
:103CD0000E94BB1BF9CF80EF89838A831B820E94DD
:103CE00016178160782F9D838C8349815A816B815F
:103CF0008D810E949C1DE8CFA5E0B0E0E2E8FEE1E6
:103D00000C94252F8C0190937D0280937C020115E9
:103D100080E21807C0F4C8010E9453129801205E87
:103D200031092830310518F00115110549F40E94B8
:103D3000D71B802F0E94161C2596E4E00C94412F7F
:103D40000E94C61BF6CF80EF89838A8381E08B8334
:103D50000E9416178160782F9D838C8349815A8138
:103D60006B818D810E949C1DE7CFA5E0B0E0EBEB5D
:103D7000FEE10C941D2F6C01FC0183819481892B41
:103D800031F08081918189238F3F09F067C52596A5
:103D9000ECE00C94392F0E941C15182F682F898194
:103DA0009A810E940C1269817A81812F0E94FF14EE
:103DB0008C01F6012281222309F445C59056811514
:103DC000F0E29F0750F0905E811530E1930728F0F4
:103DD000915C81159F4108F064C0C8019927AC012E
:103DE000445051094432510518F08B970E9780F4D6
:103DF000E091FF01F0E0EE0FFF1FEC5FFD4F8081CF
:103E000091818F3F5FE7950719F001969183808339
:103E1000C80182519F45409708F0D3C48FEF93E0CB
:103E20000E94FB2F8111B1C05EEEF52EF00E07E26D
:103E300011E0F1103FC019821A821B821C82992462
:103E40009A9478019FEFE91AF90AC8010E94FB2FA2
:103E500089831A82882309F498C0813009F08AC0C6
:103E60005801E2E0AE0EB11CC7010E94FB2FE82E04
:103E70008A83882309F489C0C5010E94FB2FF82E8C
:103E80008FEF8E0D833020F55801F3E0AF0EB11C9B
:103E9000FB82FF2021F0CE0101960E94E41C8501E7
:103EA000D0CF90E080E00F3F110511F008F097CFE0
:103EB000C80195CF011584E0180709F466C0C80150
:103EC0000E94FB2F811101C0FA940F5F1F4FB1CFE9
:103ED0008BEF8E0D833040F5C8010396FB825C01A9
:103EE000FF20E9F2580124E0A20EB11C0E94FB2F32
:103EF0008C838823A1F20B811C8101303FEF1307D3
:103F000010F0102F002746E0E41651F057E0E516B8
:103F100019F0C8010E947C1EC8010E94441EBFCF38
:103F2000C8010E947C1EBBCF84E0E812B8CF5801C4
:103F300094E0A90EB11CC80103960E94FB2FFF203C
:103F400021F1882311F18150990B989E9001999E3F
:103F5000300D1124EF2DE150FF0BCF01820F931F85
:103F6000019708F49CCFEFE9FFE03197F1F700C02B
:103F70000000F6CFCE0101960E94E41C57018FCFBE
:103F800081E00E947B180E942A188091D4018770DA
:103F900009F4FDCEF6018281882309F4F8CE8091E0
:103FA000EF0182FFF4CE82E00E944318F0CE81E060
:103FB0000E943618E8CF222309F44EC482E0E1CFF4
:103FC000813009F00FC482E00BC4053F9CE519075E
:103FD00009F466C008F460C027E245EE66EE063FCD
:103FE000FCE51F0709F42BC4F6018281882309F43C
:103FF00046C41092B4020330FDE51F0708F057C015
:104000000A3F2CE5120730F4C80182509C454497C2
:1040100008F057C00E9491159093EF018093EE0134
:1040200001315CE5150709F429C108F0A3C0093086
:104030009CE5190709F414C108F06BC00530FCE5D4
:104040001F0709F401C108F053C003303CE5130712
:1040500009F4F0C008F0F4C08091EE0181600230F4
:104060005CE5150709F4E9C06091EE011091EF01DC
:1040700084E090E00E940930612F82E290E00E948B
:1040800009300E948C1881CF27E245EE65EED7C338
:1040900026E241EE60EED3C327E245EE64EECFC3E5
:1040A00026E241EE62EECBC328E241E0EFCF0136DB
:1040B0003DE5130709F4AECF053A4DE5140709F4C1
:1040C000A9CF06318CE5180709F0F1C38091DE0114
:1040D0008A7A91E009F490E09093800169E281117D
:1040E00065E388E791E00E94720F0E94CA174DCFE6
:1040F00007308CE5180709F4AFC08091EE018061AC
:1041000008309CE5190708F498C08091EE0180649E
:1041100094C08091EE018B7F0D30ECE51E0709F411
:104120008CC0A0F48091EE018E7F0B302CE512073D
:1041300009F483C08091EE018C600C303CE51307DC
:1041400008F47BC08091EE018D7F77C08091EE01F5
:104150008F7E0F304CE5140709F46FC08091EE019B
:10416000877F00315CE5150708F467C08091EE0198
:104170008F7D63C00D3F8CE5180709F47BC058F5AF
:104180000531ECE51E0709F483C098F48091EE0137
:10419000837F03312CE5120709F44FC008F472C085
:1041A0000E948C189091EE01892F97FB87F9805817
:1041B00044C00B3F4CE5140709F44AC008F056C050
:1041C0000A3F8CE5180709F04FCF8091EF0181601D
:1041D0008093EF0149CF01309DE5190709F464C0D0
:1041E000C0F48091EF018C7F0F3FFCE51F0781F346
:1041F0008091EF01836001152DE5120748F380914E
:10420000EF01982F909591708E7F892B90FB81F90B
:10421000DFCF01363DE5130709F44CC0053A4DE503
:10422000140709F44EC002305DE5150709F01CCFF4
:1042300060E03BC08091EE0182608093EE0114CF7C
:104240008091EE018460F9CF8091EE018860F5CF16
:104250008091EF018260BCCF8091EE018062EDCF52
:104260000E948C188091EE018068E7CF8091EF0169
:104270008E7FAECF8091EF018D7FAACF8091EE012E
:104280008F7BDBCF0E948C188091EE018F77D5CF8A
:104290008091EE0182FB992790F921E0922790FB13
:1042A00082F990FB83F9C9CF61E08EE090E00E9433
:1042B0000930DACE9091EE01892F8F7E94FF8061D4
:1042C000BCCF9091EE01892F8E7F90FF8160B5CF9A
:1042D00085E3DFC20E948C189FEFE4E3FCE091507D
:1042E000E040F040E1F700C000000E94550F8091CF
:1042F000EF0182FB882780F991E089270E945F18EF
:10430000F601828100811181882309F445C0C8012A
:104310000E941C15F82E682FC8010E940C12B801CB
:104320008F2D0E94FF140E9438108C01882EF601F8
:10433000E280B580B2943FE0B3228091D4018770CF
:10434000C1F0AE2CEE20B1F0812F807F803421F0BF
:1043500080E2800F883068F08091EF0182FF09C011
:1043600082E00E9443188091D4018770AA24A3940C
:104370008111A12C912E92942FE09222FBE0F9154D
:1043800008F476C0E92DF0E0E75BFF4C0C94AF2F0A
:1043900081E0B4CF80E0B2CFC8010E94D811F82EDE
:1043A000BECF212F2F70F22E107F19F0F29490EFD4
:1043B000F922EE20B9F0FF2069F080E2800F88300A
:1043C00010F0811009C08091DE01F82AF092DE0120
:1043D0000E94CA17802F4AC08091DD01F82AF0920E
:1043E000DD01F6CF802F0E94E11BFF2009F440C0C1
:1043F000005E083010F0811004C08F2D0E94C011A3
:1044000006C0F0948091DD01F822F092DD010E9457
:10441000CA172EC0312F3F70F32E107F103219F0C3
:10442000F29480EFF822882089F041E0841609F4A4
:1044300091C0EE2009F49AC0BB2009F467C0F601D0
:10444000858180FFC7CF8F70858360C08091EF0129
:1044500082FD35C0EE2069F1FF2039F08091DE0148
:10446000F82AF092DE010E94CA1780E00E94161C12
:10447000292D2850330B2430310510F40E94B80F39
:10448000AA2009F484CC8091D40180FD80CCF6016F
:1044900012828595859585950E947B18C6010E949C
:1044A000B51E8091D4018595859585950E94361815
:1044B0006ECC80E00E94E11BFF20D1F29ECFEE2067
:1044C00049F1B11004C08091E1018F2920C051E071
:1044D000B51210C082FFCCCF8091E101F82AF81606
:1044E00039F20E9416179093E0018093DF01F09259
:1044F000E101BECF85E0B812E6CF0E94B5119091E0
:1045000081018F2D892B8913809381018F2D0E942A
:10451000D71BAECFB11003C00E94B51112C091E0FD
:10452000B91213C08091DE018F2109F4A1CF0E943E
:10453000B511909181018F2D8095892389138093E6
:1045400081018F2D0E94D01B93CFE5E0BE1609F4A8
:104550008FCFE2CFEE2029F0F5E0FB1508F488CFED
:10456000D5CF24E02B1508F483CFEBCFBB2049F344
:10457000F9E38F1209C02FEF37EE43E021503040AE
:104580004040E1F700C00000802F0E94E11B70CF87
:10459000812F86958695837061F0813009F068CF10
:1045A000C8019370E11002C090E080E00E948C0F7F
:1045B0005FCFC8019370E11002C090E080E00E94DC
:1045C000A20F56CF812F837089F5E11051CF402F74
:1045D000429546954770440F440F802F8F70042EEC
:1045E00001C0880F0A94EAF7202F207104FF07C04A
:1045F0002FE030E001C0220F4A95EAF7209516958A
:1046000016951370123069F050F43091E2011130B8
:1046100029F0822B83230E9487182ACF832B822B99
:10462000FACF282B8091E2018227F5CF8695EE20E4
:1046300011F0812F8170882309F41ACF402F429501
:1046400046954770440F440F802F8F70042E01C091
:10465000880F0A94EAF7202F207104FF07C02FE08B
:1046600030E001C0220F4A95EAF72095169516957D
:104670001370123069F050F43091B502113029F006
:10468000822B83230E942518F3CE832B822BFACF13
:10469000282B8091B5028227F5CF1F70EE2029F0DC
:1046A000812F0E947B18802F32CF802F0E94D01B39
:1046B000812F0E943618DCCE802F52EF8516B1F183
:1046C000581570F090EF8916D1F0E1EF8E1691F049
:1046D000EE2009F466C0B1107DCE812F8F712AC003
:1046E000F3EF8F1651F124EF8212F2CF8091EF0198
:1046F00082FD2FC0812F8F71EE20D9F21BC0EE20DA
:1047000081F034E03B1508F4B3CE1F7181E090E0F6
:10471000012E01C0880F0A94EAF79091B50289270B
:10472000B1CF45E04B1508F4A3CEEFCF812F8F71A9
:10473000E110BFCF0E947B189BCE80E0EE2009F4F1
:10474000A1CF1F7181E0012E01C0880F0A94EAF702
:1047500099CFEE20C9F08091D4018770843041F464
:104760000E94C711812F8F710E943618A12C80CE14
:1047700054E05B15D8F31F71812F0E947B1863E012
:10478000812F0E94851DF2CF84E08B1530F40E94AA
:10479000C71164E0812F8F71F4CF81E00E9443182C
:1047A000E5CFBB2059F0893309F0EECE9FEFE7EE5D
:1047B000F3E09150E040F040E1F7E4CE812F8F71BB
:1047C00078CF0031FFE51F0709F4DACB01313FE56F
:1047D000130709F4F0CB809146028111F1CB81E0FF
:1047E000809346020E94660F6093470270934802CE
:1047F0008093490290934A020E94660F609342029E
:10480000709343028093440290934502033F2CE54A
:10481000120709F43DCC08F0D8CB083D4CE514074D
:1048200009F432CC093D5CE5150709F43DCC073DA0
:104830008CE5180709F0D8CB26E241EE61EEC601FF
:104840000E94871CA2CB80314FE5940709F4AFCBBF
:1048500081319F4509F0BFCF82E0AACB85E0DE0120
:10486000119601900D928A95E1F7F60122818981D6
:104870009A81211190CA0E94D811182F94CA06312A
:10488000FCE51F0709F03CCD80918001811120CD0E
:1048900089E2EAE7F1E020E831E09191891303C071
:1048A000DF0111971C922E173F07B9F71ECC0A356E
:1048B0002DE5120709F46CCD68F401154CE51407D9
:1048C00009F408CD0E3D1C4509F01ACD0E949F1534
:1048D0000E94A51B0C358DE5180709F408CD08F4D6
:1048E00059CD073A1D45A1F30BCD1F93CF93DF930D
:1048F00080919F01807F09F049C080919C018823AD
:1049000009F444C08091D101D091A00160919A0135
:1049100070919B01A0919D01B0919E01C62FC7236C
:1049200016E0D81799F190E0109711F0CF3F19F4E5
:1049300001968770F6CF189F9001199F300D1124B2
:10494000F901EF55FE4F41814713F2CF40814613E5
:10495000EFCF42814111ECCF438154814A1B5B0B65
:10496000483C510528F780919F018F7080618093AA
:104970009F01F901EA55FE4F80818F70806180832D
:104980008AE991E00E94B51E0E94CE11DF91CF917D
:104990001F910895A1E1B0E0E0EDF4E20C941F2F27
:1049A0008C0185E0F801DE011D9601900D928A953B
:1049B000E1F7F801E2808AE9A82E81E0B82E609143
:1049C0009D0170919E016115710509F426C19091B8
:1049D0009A0140919B01892F84238F3F09F41DC1C7
:1049E00020813181C380D480F0909C01F601E61BC8
:1049F000F70BFF2009F4DCC080919F01582F507FF6
:104A0000E83CF10508F09FC051116BC0FE2C431328
:104A100014C0921312C0E11010C08F708061809397
:104A20009F01C5010E94B51E80919F01F8018583F9
:104A30008F2D6196EAE00C943B2FC114D10429F02C
:104A4000822F83238F3F09F003C180E0F82FF1709C
:104A5000DF2E80FF3CC08091D1014091A00156E043
:104A6000841315C02D873E878D859E850E944B152A
:104A7000292F22952F702230F0F0243018F59F70E6
:104A8000F1F0F8019581907FD1F4D12C1EC090E017
:104A9000589FF001599FF00D1124EF55FE4F618191
:104AA000361306C06081261303C06281E6120FC070
:104AB00001968770D5CF9F7011F0882331F3805E07
:104AC000883018F3C8010E94B51EFD2CB1CFEE202E
:104AD00009F4AECF80919F01816080939F01F12CFA
:104AE000A7CF431306C0921304C0F801EE2009F4C7
:104AF00079C0C8010E945815882309F1EE20F9F009
:104B000080919F01803270F020919A0130919B0139
:104B100038872F831986DB86CA868C87CE01079655
:104B20000E94B51E86E0F801AAE9B1E001900D925D
:104B30008A95E1F70E947524FF24F39479CFC80188
:104B40000E94B51EF9CF51110AC08AE991E00E9476
:104B5000B51E86E0F50111928A95E9F7C0CF43139F
:104B60000FC092130DC0E1100BC0F8018583C8017E
:104B70000E94B51E86E0F50111928A95E9F758CF9B
:104B8000C8010E9458158823D1F2EE20C1F280910D
:104B90009F01803238F220919A0130919B013A8333
:104BA00029831B82DD82CC828E83CE010196B8CF11
:104BB000E83CF105F8F6FE2CEE2009F243131FC085
:104BC00092131DC080919F0180FD10C0982F907F8F
:104BD00069F0F8018583903F31F0982F907F905FC6
:104BE0008F70892B8583C8010E94B51E86E0F8016D
:104BF000AAE9B1E001900D928A95E1F719CFC801B9
:104C00000E94581581118ECF80919F018160809301
:104C10009F01C8010E94B51E0BCFEE2009F48FCF73
:104C2000C8010E945815F82E882309F488CF86E021
:104C3000F801AAE9B1E001900D928A95E1F780911F
:104C40009A0190919B010E944B150E947524F0CE11
:104C500081E08E25FBCE1F921FB61F9211248F93E9
:104C60009F93AF93BF9380919302811113C0809162
:104C7000940290919502A0919602B091970241966C
:104C8000A11DB11D8093940290939502A09396026A
:104C9000B0939702BF91AF919F918F911F901FBECC
:104CA0001F901895CDB7DEB7E7970FB6F894DEBF23
:104CB0000FBECDBF85B7806885BF85B7806885BFCB
:104CC00084B7877F84BF0FB6F894A8958091600061
:104CD000886180936000109260000FBE80E890E0D1
:104CE0000FB6F89480936100909361000FBE8CED35
:104CF0009FE090937701809376010E94A40D0E941B
:104D0000970E8091E20084608093E2007894809115
:104D1000B1028823A1F01091E9001F709091EC007E
:104D2000892F817090FD80E8182B1092E900809106
:104D3000E80083FD0E9498181F701093E90082E03C
:104D400084BD93E095BD9AEF97BD80936E000E945D
:104D50007815811102C00E94BF140FE411E057E5DD
:104D6000E52E51E0F52ED8018D918D018F3F11F088
:104D70000E94DE0FE016F106B1F707E511E04FE5FE
:104D8000E42E41E0F42EF80181918F018F3F11F064
:104D90000E94DE0FE016F106B1F788E0E2E7F2E0EC
:104DA000DF01282F1D922A95E9F7E6EEF1E0DF01F9
:104DB0001D928A95E9F790E080E00E940330883EDA
:104DC0009E4F21F40E947815811102C00E949F1508
:104DD00082E090E00E94FB2F8093F0010E949115E9
:104DE0009093EF018093EE010E942217EFE3FCE91C
:104DF0003197F1F700C000000E94221780917202E3
:104E000080FF08C06FEF7FEF90E080E00E942730C6
:104E10000E94550F83E090E00E94FB2F0E948718AC
:104E200010926B0280E8809380020E94142E6DE045
:104E300070E083E092E00E948412892BE9F5809172
:104E40006B0263E070E081FDFDC180E092E00E94B2
:104E50008412892B89F56DE070E080EF91E00E946B
:104E60008412892B49F50E94660F605A75418F4F55
:104E70009F4F60938702709388028093890290937A
:104E80008A02E8EBF2E080E092E0DF019C011D92F3
:104E900021503040E1F7F093B904E093B8048FEF6C
:104EA0009FEF9093B7028093B60281E080938C02CB
:104EB00080938B0210926C0280E091E090939002BC
:104EC00080938F0282E792E038E0380F3DAB80910B
:104ED000B10230E4F32E00E112E1853009F4ECC1B7
:104EE0000E942217D82E81110E94660FA2E7B2E01D
:104EF000E1EFF1E010E000E0302F8D9121912817D3
:104F000009F4E9C190E0FF24F3942827422F4F21B0
:104F100009F4DCC199A73AA78F2191E009F490E048
:104F20009BA70E9416178160782F9DA78CA749A583
:104F30005AA56BA58DA50E949C1DF801EF50FE4F50
:104F40008081F826F0828090040290900502092C5E
:104F5000000CAA08BB0880910C0190E0E4E0F2E0AC
:104F600021E030E03296821793070CF0CBC180919C
:104F7000000290910102A0910202B09103026FB76A
:104F8000F894409094025090950260909602709030
:104F900097026FBF481A590A6A0A7B0A10910C01DE
:104FA000A9EC4A1651046104710414F18091FF01C7
:104FB00090E0019669E170E00E945A2F8093FF0112
:104FC000880F991FFC01EC5FFD4F11821082812F29
:104FD000183108F087E18F5F80930C010E94660F03
:104FE0006093000270930102809302029093030287
:104FF000B2E08B169104A104B1040CF490C1A0E6B8
:10500000BAEEA50194010E94BC2F4B015C01E8ECB3
:105010001E9F90011124032E000C440B550B240DF0
:10502000351D461D571DA5E0B0E00E94BC2F9B0119
:10503000AC01C501B4010E946E2F49015A01F1EF84
:105040008F169104A104B1042CF000EF802E912C56
:10505000A12CB12C8091FB019091FC01A091FD014C
:10506000B091FE012FB7F8944090940250909502B1
:1050700060909602709097022FBF481A590A6A0AE8
:105080007B0A25E6421651046104710484F00E94F3
:10509000660F6093FB017093FC018093FD01909378
:1050A000FE01809136028093FA018092F9011091FD
:1050B000FA01A091F901A11BBB0BA30192010E946F
:1050C000C72F24E630E040E050E00E94902F120FFE
:1050D0001093360280918C02882309F46CC060E042
:1050E00080E00E94C50F40914702509148026091B4
:1050F000490270914A022FB7F894809194029091DE
:105100009502A0919602B09197022FBF841B950B38
:10511000A60BB70B893C9105A105B10510F01092C3
:1051200046024091420250914302609144027091C4
:1051300045022FB7F8948091940290919502A09126
:105140009602B09197022FBF841B950BA60BB70B4D
:1051500081319742A105B10508F4E5C00E94AE1265
:1051600080918C02882371F02091B6023091B702B1
:105170002115310539F080916C0261E070E08823DF
:1051800009F4C5C180918B028823A9F00E94660FA3
:1051900000918702109188022091890230918A0241
:1051A000601B710B820B930B6F3F7F4F8F4F9F479D
:1051B00010F40E94AE12D1100E94C9120E94B80FC2
:1051C00090916D02891380936D028091B1028430B9
:1051D00009F07DCE83E08093E9008091E80082FFB2
:1051E00076CE8091E80090E085FF06C00E94C30D56
:1051F000882309F457C291E08091E8008B7780936F
:10520000E800992309F463CE00917E0210917F0299
:1052100089810115110509F462C28E3F09F0E6C2C9
:105220008A81833020F08550833008F0DFC2EA8124
:10523000EE3008F0DBC2F0E0EB5AFF4CCE010196F5
:105240000C94AF2F8DEF91E002CE8091B1028430AB
:1052500029F10E94AE121092930288E190E00FB6FD
:10526000F894A895809360000FBEF092600083B719
:10527000817F846083BF83B7816083BF7894889582
:1052800083B78E7F83BF0FB6F894A8958091600096
:10529000886180936000109260000FBE8091A70229
:1052A000882351F00E942217E2E7F2E081918111F8
:1052B0009DC49DA99E13FACF8091B102853009F457
:1052C000C4CF0E948C180E94B80F0ACE9F5FFF0CBB
:1052D000983009F01BCE0F5F1F4F0830110509F001
:1052E0000BCE8FEF8EA78FA718AA0E94161781608A
:1052F000782F9AAB89AB4EA55FA568A98AA90E94B1
:105300009C1D21CE40815181052E000C660B770B30
:10531000840E951EA61EB71E2F5F3F4F23CE812CF5
:10532000912C540197CE40913E0250913F026091E2
:105330004002709141022FB7F894809194029091AD
:105340009502A0919602B09197022FBF841B950BF6
:10535000A60BB70B893C9105A105B10508F400CF58
:105360000E94C9120E94660F60933E0270933F0232
:10537000809340029093410280914602813009F46B
:10538000B4C0882309F49DC0823009F4B1C0809173
:10539000B5020E944212182F60E080E00E94C50F03
:1053A00061E0111160E08AE192E00E94111461E075
:1053B00080E00E94C50F61E0113009F060E085E1F6
:1053C00092E00E94111463E080E00E94C50F0E94E9
:1053D000B80F81FB662760F980E192E00E9411140A
:1053E00063E082E10E94C50F8090360280910D013A
:1053F000881105C080913B02803309F44AC0809235
:105400000D0180E380933B02912CB12CA12C1092D2
:105410003A02C501B4012AE030E040E050E00E94C9
:105420006E2F605D603331F081149104A104B104EA
:1054300009F460E36093390260E38AE0881691041E
:10544000A104B10490F0BAE04B2E512C612C712CC8
:10545000C501B401A30192010E946E2FCA01B901D6
:10546000A30192010E946E2F605D6093380220E3D9
:1054700094E689169104A104B10448F0C501B40171
:1054800024E630E040E050E00E946E2F205D209343
:10549000370207E312E0D8010D900020E9F78D01F3
:1054A00001501109A7E3EA2EA2E0FA2EE016F10658
:1054B00008F056CE60E0F70181917F010E945213FF
:1054C000F5CF80913D0290E0019665E070E00E948A
:1054D0005A2F80933D02880F8CAB1BAA8BA99CA9E5
:1054E000815E974F0E94620D52CF8FE196E0FACF16
:1054F00080913C0290E001968170992780933C0254
:10550000982F8827990F815E9D4FECCF8F5F082FD2
:1055100010E07B01082E02C0EE0CFF1C0A94E2F79B
:10552000A9014E215F21452B89F390916B0290FDDB
:1055300043C08295880F807680931001980136953C
:1055400027953695279520931301815E809311014D
:105550001092140124E630E047E050E06EE071E084
:1055600088E70E94B72E892B09F00CCEA801E5E050
:10557000440F551FEA95E1F780916B0280FD2AC028
:1055800048545D4F04E610E020E230E060E488E734
:105590000E94D82E892B09F0F5CD0E94C912E09403
:1055A000F0948091B6029091B702E822F922F0922D
:1055B000B702E092B602E6CD880F880F880F80937D
:1055C000100110921301895F8093110183E0809391
:1055D0001401C0CFEBE4F2E080E2DF011D928A9576
:1055E000E9F7E3E6F1E0FFABEEAB0FE511E067E6CC
:1055F000262E61E0362E77E0972E88248394AEA97C
:10560000BFA92D91BFABAEABF80141908F01440E05
:10561000552E511CC20188549D4F2C01E22FF0E001
:10562000E55BFD4F30E020E0692C621AC82C022EA9
:1056300001C0CC0C0A94EAF7520190E0D5018D919B
:105640005D018C21662D691B6770762E062E000C7D
:10565000770BB82F01C0BB0F7A94EAF77B2E7195B8
:10566000619571096770772701C086956A95EAF799
:10567000782A8081782A70829F5F9830F9F62F5FB0
:105680003F4F31962830310579F6EEA9FFA92E1645
:105690003F0609F0B4CF04E610E020E230E04BE42E
:1056A00052E074CF00E210E09E012F5F3F4F79017E
:1056B0008091E80085FD0AC08091E8008B77809397
:1056C000E8000E94C30D882399F395CD8091F100E5
:1056D000D7018D937D010150110951F78CCD8C308C
:1056E00009F4D0C058F5843009F4B3C058F48230BE
:1056F00009F46BC008F09EC0813009F462C08FEFDE
:10570000898374C0863009F4BAC008F4ADC08B3008
:10571000B1F780917A0290917B02892B09F466C0DF
:10572000CE0101960E941E0EFFEF21EE34E0F150F3
:1057300020403040E1F700C000006ACB803109F41E
:10574000D3C098F58E3009F4A4C008F49EC08091AF
:105750007A0290917B02892B09F448C0EC80F12CED
:105760002DE1E216F10408F041C0CA80DB80DC24A0
:10577000CD24DC248E010F5F1F4FE00EF11EC60109
:10578000895D9E4F0E151F0589F139EDC31632E074
:10579000D30628F4D80114966C910E9409300F5F4B
:1057A0001F4FBFEFCB1ADB0AEACF823109F4A1C049
:1057B00008F49DC0833109F4C6C08E3F09F09FCF25
:1057C00036CD1A8289E08B8311C08A81823009F438
:1057D00023C2833081F0813009F091CF0E94660F9F
:1057E0000E94B52F6B837C838D839E83CE010196AF
:1057F0000E941E0E6CCB80917A0290917B02892BC5
:10580000A9F3809172028B83809173028C838091C3
:1058100074028D83809175028E83809176028F83CE
:1058200080917702888780917802898780917902B8
:105830008A87DCCF8A81823009F061CF6B817C81DD
:105840008D819E810E94B52F86E290E00E940930F2
:10585000CDCF4C816B818A810E94CF1498278927F4
:1058600098279E838D83C2CF2D813E8132272327A7
:1058700032274C816B818A810E943314B7CF0E94FA
:105880005A14B4CF80E18A83B1CF82E08A8389ED54
:105890009ACFEC80F12CBDE1EB16F10408F0A6CF15
:1058A000CA80DB80DC24CD24DC248E010F5F1F4FF7
:1058B000E00EF11EC601895D9E4F0E151F0509F40D
:1058C00095CFE9EDCE16E2E0DE0658F40E94FB2FFC
:1058D000D80114968C93FFEFCF1ADF0A0F5F1F4F8A
:1058E000E9CFF8011482F7CF0E9423147FCF82E022
:1058F000CACFEC80F12CEDE1EE16F10408F076CF82
:10590000CA80DB80DC24CD24DC248E010F5F1F4F96
:10591000E00EF11EC6018796E016F10609F466CF87
:10592000FFEFCF16D10409F058F40E94FB2FD801E5
:1059300014968C93FFEFCF1ADF0A0F5F1F4FEACF49
:10594000F8011482F7CFEC80F12C2DE1E216F1047E
:1059500008F04CCF0A811B811027012710270F3F29
:10596000110511F008F042CF80E091E0801B910B0F
:105970008E159F0508F43ACF480137E2830E911C3B
:1059800080917A0290917B0238016E0C7F1C892BEA
:10599000B9F5680181E0C822DD2400FF0DC0C8010F
:1059A00086960E94FB2F9D8189279827892781153C
:1059B0009C4511F48FEF8D83570160FE17C0B1E055
:1059C000AB1AB10855E0452E512C4C0E5D1E4A0C09
:1059D0005B1CC4018E0D9F1D0E94FB2FF201908164
:1059E00081159C4519F48FEFD2018C93E1E0F0E032
:1059F000EC0FFD1FEC0DFD1D2FEFCA14DB0420F092
:105A0000FE0131967F011AC09481858181159C45E4
:105A100011F42483258332E0C30ED11C3296EDCFDE
:105A20000F3F110509F028F4D70114966C910E94DC
:105A30000930BFEFEB1AFB0A0F5F1F4FC8018796B3
:105A40000615170569F7D2CE28E0E6E1F1E0DE01A0
:105A5000919601900D922A95E1F720E2DC011D92CA
:105A60002A95E9F785E0898388E0FE01B196DE0199
:105A7000159601900D928A95E1F7B8CE8CE6898350
:105A800081E08A831B821C82B1CE0C81602F70E082
:105A9000762F66270B81060F172F111D012E000C84
:105AA000220B330B45E0000F111F221F331F4A95B5
:105AB000D1F7B901A801405E5F4F6F4F7F4F40178C
:105AC00051076207730708F491CE0C36B1E01B074B
:105AD0002105310508F08ACE4D36E1E05E0761050B
